{
  "_format": "hh-sol-artifact-1",
  "contractName": "EnclaveKeyManager",
  "sourceName": "contracts/EnclaveKeyManager.sol",
  "abi": [
    {
      "inputs": [],
      "stateMutability": "nonpayable",
      "type": "constructor"
    },
    {
      "anonymous": false,
      "inputs": [
        {
          "indexed": true,
          "internalType": "address",
          "name": "by",
          "type": "address"
        },
        {
          "indexed": false,
          "internalType": "uint256",
          "name": "timestamp",
          "type": "uint256"
        },
        {
          "indexed": false,
          "internalType": "uint256",
          "name": "newNonce",
          "type": "uint256"
        }
      ],
      "name": "KeyRotated",
      "type": "event"
    },
    {
      "anonymous": false,
      "inputs": [
        {
          "indexed": true,
          "internalType": "address",
          "name": "oldOwner",
          "type": "address"
        },
        {
          "indexed": true,
          "internalType": "address",
          "name": "newOwner",
          "type": "address"
        }
      ],
      "name": "OwnerUpdated",
      "type": "event"
    },
    {
      "inputs": [
        {
          "internalType": "bytes32",
          "name": "salt",
          "type": "bytes32"
        }
      ],
      "name": "deriveKey",
      "outputs": [
        {
          "internalType": "bytes32",
          "name": "",
          "type": "bytes32"
        }
      ],
      "stateMutability": "view",
      "type": "function"
    },
    {
      "inputs": [
        {
          "internalType": "bytes32",
          "name": "recipientPublicKey",
          "type": "bytes32"
        }
      ],
      "name": "getEncryptedSecret",
      "outputs": [
        {
          "internalType": "bytes32",
          "name": "nonce",
          "type": "bytes32"
        },
        {
          "internalType": "bytes",
          "name": "ciphertext",
          "type": "bytes"
        }
      ],
      "stateMutability": "view",
      "type": "function"
    },
    {
      "inputs": [],
      "name": "getKeyNonce",
      "outputs": [
        {
          "internalType": "uint256",
          "name": "",
          "type": "uint256"
        }
      ],
      "stateMutability": "view",
      "type": "function"
    },
    {
      "inputs": [],
      "name": "getSecret",
      "outputs": [
        {
          "internalType": "bytes32",
          "name": "",
          "type": "bytes32"
        }
      ],
      "stateMutability": "view",
      "type": "function"
    },
    {
      "inputs": [
        {
          "internalType": "bytes32",
          "name": "_newKey",
          "type": "bytes32"
        }
      ],
      "name": "injectKey",
      "outputs": [],
      "stateMutability": "nonpayable",
      "type": "function"
    },
    {
      "inputs": [],
      "name": "owner",
      "outputs": [
        {
          "internalType": "address",
          "name": "",
          "type": "address"
        }
      ],
      "stateMutability": "view",
      "type": "function"
    },
    {
      "inputs": [],
      "name": "rotateKey",
      "outputs": [],
      "stateMutability": "nonpayable",
      "type": "function"
    },
    {
      "inputs": [
        {
          "internalType": "address",
          "name": "_newOwner",
          "type": "address"
        }
      ],
      "name": "transferOwnership",
      "outputs": [],
      "stateMutability": "nonpayable",
      "type": "function"
    }
  ],
  "bytecode": "0x608060405234801561001057600080fd5b5033600260006101000a81548173ffffffffffffffffffffffffffffffffffffffff021916908373ffffffffffffffffffffffffffffffffffffffff1602179055506100846020423360405160200161006a929190610233565b60405160208183030381529060405261009f60201b60201c565b61008d906102a6565b600081905550600180819055506104a1565b606060008073010000000000000000000000000000000000000173ffffffffffffffffffffffffffffffffffffffff1685856040516020016100e29291906103a1565b6040516020818303038152906040526040516100fe919061040d565b600060405180830381855afa9150503d8060008114610139576040519150601f19603f3d011682016040523d82523d6000602084013e61013e565b606091505b509150915081610183576040517f08c379a000000000000000000000000000000000000000000000000000000000815260040161017a90610481565b60405180910390fd5b809250505092915050565b6000819050919050565b6000819050919050565b6101b36101ae8261018e565b610198565b82525050565b600073ffffffffffffffffffffffffffffffffffffffff82169050919050565b60006101e4826101b9565b9050919050565b60008160601b9050919050565b6000610203826101eb565b9050919050565b6000610215826101f8565b9050919050565b61022d610228826101d9565b61020a565b82525050565b600061023f82856101a2565b60208201915061024f828461021c565b6014820191508190509392505050565b600081519050919050565b6000819050602082019050919050565b6000819050919050565b6000610290825161027a565b80915050919050565b600082821b905092915050565b60006102b18261025f565b826102bb8461026a565b90506102c681610284565b92506020821015610306576103017fffffffffffffffffffffffffffffffffffffffffffffffffffffffffffffffff83602003600802610299565b831692505b5050919050565b6103168161018e565b82525050565b600082825260208201905092915050565b60005b8381101561034b578082015181840152602081019050610330565b60008484015250505050565b6000601f19601f8301169050919050565b60006103738261025f565b61037d818561031c565b935061038d81856020860161032d565b61039681610357565b840191505092915050565b60006040820190506103b6600083018561030d565b81810360208301526103c88184610368565b90509392505050565b600081905092915050565b60006103e78261025f565b6103f181856103d1565b935061040181856020860161032d565b80840191505092915050565b600061041982846103dc565b915081905092915050565b600082825260208201905092915050565b7f72616e646f6d42797465733a206661696c656400000000000000000000000000600082015250565b600061046b601383610424565b915061047682610435565b602082019050919050565b6000602082019050818103600083015261049a8161045e565b9050919050565b61115b806104b06000396000f3fe608060405234801561001057600080fd5b50600436106100885760003560e01c80635b9fdc301161005b5780635b9fdc30146101025780638da5cb5b14610120578063e5660ef21461013e578063f2fde38b1461016e57610088565b80630ff5d2251461008d578063153a5eaa146100a95780631e58e8e3146100b3578063257e6e09146100e4575b600080fd5b6100a760048036038101906100a291906109c5565b61018a565b005b6100b161028e565b005b6100cd60048036038101906100c891906109c5565b6103d8565b6040516100db929190610a91565b60405180910390f35b6100ec6104e6565b6040516100f99190610ada565b60405180910390f35b61010a6104f0565b6040516101179190610af5565b60405180910390f35b61012861058a565b6040516101359190610b51565b60405180910390f35b610158600480360381019061015391906109c5565b6105b0565b6040516101659190610af5565b60405180910390f35b61018860048036038101906101839190610b98565b6105e7565b005b600260009054906101000a900473ffffffffffffffffffffffffffffffffffffffff1673ffffffffffffffffffffffffffffffffffffffff163373ffffffffffffffffffffffffffffffffffffffff161461021a576040517f08c379a000000000000000000000000000000000000000000000000000000000815260040161021190610c22565b60405180910390fd5b806000819055506001600081548092919061023490610c71565b91905055503373ffffffffffffffffffffffffffffffffffffffff167f80c785e88f5f11187510210d1084c7c255d1eff28a2af10831462c608cf33b5b42600154604051610283929190610cb9565b60405180910390a250565b600260009054906101000a900473ffffffffffffffffffffffffffffffffffffffff1673ffffffffffffffffffffffffffffffffffffffff163373ffffffffffffffffffffffffffffffffffffffff161461031e576040517f08c379a000000000000000000000000000000000000000000000000000000000815260040161031590610c22565b60405180910390fd5b61035d602042336001546001436103359190610ce2565b406040516020016103499493929190610da0565b6040516020818303038152906040526107a6565b61036690610e20565b6000819055506001600081548092919061037f90610c71565b91905055503373ffffffffffffffffffffffffffffffffffffffff167f80c785e88f5f11187510210d1084c7c255d1eff28a2af10831462c608cf33b5b426001546040516103ce929190610cb9565b60405180910390a2565b60006060600260009054906101000a900473ffffffffffffffffffffffffffffffffffffffff1673ffffffffffffffffffffffffffffffffffffffff163373ffffffffffffffffffffffffffffffffffffffff161461046c576040517f08c379a000000000000000000000000000000000000000000000000000000000815260040161046390610c22565b60405180910390fd5b61049860204233604051602001610484929190610e87565b6040516020818303038152906040526107a6565b6104a190610e20565b91506104df83836000546040516020016104bb9190610eb3565b60405160208183030381529060405260405180602001604052806000815250610895565b9050915091565b6000600154905090565b6000600260009054906101000a900473ffffffffffffffffffffffffffffffffffffffff1673ffffffffffffffffffffffffffffffffffffffff163373ffffffffffffffffffffffffffffffffffffffff1614610582576040517f08c379a000000000000000000000000000000000000000000000000000000000815260040161057990610c22565b60405180910390fd5b600054905090565b600260009054906101000a900473ffffffffffffffffffffffffffffffffffffffff1681565b60008054826001546040516020016105ca93929190610ece565b604051602081830303815290604052805190602001209050919050565b600260009054906101000a900473ffffffffffffffffffffffffffffffffffffffff1673ffffffffffffffffffffffffffffffffffffffff163373ffffffffffffffffffffffffffffffffffffffff1614610677576040517f08c379a000000000000000000000000000000000000000000000000000000000815260040161066e90610c22565b60405180910390fd5b600073ffffffffffffffffffffffffffffffffffffffff168173ffffffffffffffffffffffffffffffffffffffff16036106e6576040517f08c379a00000000000000000000000000000000000000000000000000000000081526004016106dd90610f57565b60405180910390fd5b8073ffffffffffffffffffffffffffffffffffffffff16600260009054906101000a900473ffffffffffffffffffffffffffffffffffffffff1673ffffffffffffffffffffffffffffffffffffffff167f8292fce18fa69edf4db7b94ea2e58241df0ae57f97e0a6c9b29067028bf92d7660405160405180910390a380600260006101000a81548173ffffffffffffffffffffffffffffffffffffffff021916908373ffffffffffffffffffffffffffffffffffffffff16021790555050565b606060008073010000000000000000000000000000000000000173ffffffffffffffffffffffffffffffffffffffff1685856040516020016107e9929190610f77565b6040516020818303038152906040526040516108059190610fe3565b600060405180830381855afa9150503d8060008114610840576040519150601f19603f3d011682016040523d82523d6000602084013e610845565b606091505b50915091508161088a576040517f08c379a000000000000000000000000000000000000000000000000000000000815260040161088190611046565b60405180910390fd5b809250505092915050565b606060008073010000000000000000000000000000000000000373ffffffffffffffffffffffffffffffffffffffff16878787876040516020016108dc9493929190611066565b6040516020818303038152906040526040516108f89190610fe3565b600060405180830381855afa9150503d8060008114610933576040519150601f19603f3d011682016040523d82523d6000602084013e610938565b606091505b50915091508161097d576040517f08c379a000000000000000000000000000000000000000000000000000000000815260040161097490611105565b60405180910390fd5b8092505050949350505050565b600080fd5b6000819050919050565b6109a28161098f565b81146109ad57600080fd5b50565b6000813590506109bf81610999565b92915050565b6000602082840312156109db576109da61098a565b5b60006109e9848285016109b0565b91505092915050565b6109fb8161098f565b82525050565b600081519050919050565b600082825260208201905092915050565b60005b83811015610a3b578082015181840152602081019050610a20565b60008484015250505050565b6000601f19601f8301169050919050565b6000610a6382610a01565b610a6d8185610a0c565b9350610a7d818560208601610a1d565b610a8681610a47565b840191505092915050565b6000604082019050610aa660008301856109f2565b8181036020830152610ab88184610a58565b90509392505050565b6000819050919050565b610ad481610ac1565b82525050565b6000602082019050610aef6000830184610acb565b92915050565b6000602082019050610b0a60008301846109f2565b92915050565b600073ffffffffffffffffffffffffffffffffffffffff82169050919050565b6000610b3b82610b10565b9050919050565b610b4b81610b30565b82525050565b6000602082019050610b666000830184610b42565b92915050565b610b7581610b30565b8114610b8057600080fd5b50565b600081359050610b9281610b6c565b92915050565b600060208284031215610bae57610bad61098a565b5b6000610bbc84828501610b83565b91505092915050565b600082825260208201905092915050565b7f456e636c6176654b65794d616e616765723a20556e617574686f72697a656400600082015250565b6000610c0c601f83610bc5565b9150610c1782610bd6565b602082019050919050565b60006020820190508181036000830152610c3b81610bff565b9050919050565b7f4e487b7100000000000000000000000000000000000000000000000000000000600052601160045260246000fd5b6000610c7c82610ac1565b91507fffffffffffffffffffffffffffffffffffffffffffffffffffffffffffffffff8203610cae57610cad610c42565b5b600182019050919050565b6000604082019050610cce6000830185610acb565b610cdb6020830184610acb565b9392505050565b6000610ced82610ac1565b9150610cf883610ac1565b9250828203905081811115610d1057610d0f610c42565b5b92915050565b6000819050919050565b610d31610d2c82610ac1565b610d16565b82525050565b60008160601b9050919050565b6000610d4f82610d37565b9050919050565b6000610d6182610d44565b9050919050565b610d79610d7482610b30565b610d56565b82525050565b6000819050919050565b610d9a610d958261098f565b610d7f565b82525050565b6000610dac8287610d20565b602082019150610dbc8286610d68565b601482019150610dcc8285610d20565b602082019150610ddc8284610d89565b60208201915081905095945050505050565b6000819050602082019050919050565b6000610e0a825161098f565b80915050919050565b600082821b905092915050565b6000610e2b82610a01565b82610e3584610dee565b9050610e4081610dfe565b92506020821015610e8057610e7b7fffffffffffffffffffffffffffffffffffffffffffffffffffffffffffffffff83602003600802610e13565b831692505b5050919050565b6000610e938285610d20565b602082019150610ea38284610d68565b6014820191508190509392505050565b6000610ebf8284610d89565b60208201915081905092915050565b6000610eda8286610d89565b602082019150610eea8285610d89565b602082019150610efa8284610d20565b602082019150819050949350505050565b7f496e76616c696420616464726573730000000000000000000000000000000000600082015250565b6000610f41600f83610bc5565b9150610f4c82610f0b565b602082019050919050565b60006020820190508181036000830152610f7081610f34565b9050919050565b6000604082019050610f8c6000830185610acb565b8181036020830152610f9e8184610a58565b90509392505050565b600081905092915050565b6000610fbd82610a01565b610fc78185610fa7565b9350610fd7818560208601610a1d565b80840191505092915050565b6000610fef8284610fb2565b915081905092915050565b7f72616e646f6d42797465733a206661696c656400000000000000000000000000600082015250565b6000611030601383610bc5565b915061103b82610ffa565b602082019050919050565b6000602082019050818103600083015261105f81611023565b9050919050565b600060808201905061107b60008301876109f2565b61108860208301866109f2565b818103604083015261109a8185610a58565b905081810360608301526110ae8184610a58565b905095945050505050565b7f656e63727970743a206661696c65640000000000000000000000000000000000600082015250565b60006110ef600f83610bc5565b91506110fa826110b9565b602082019050919050565b6000602082019050818103600083015261111e816110e2565b905091905056fea2646970667358221220dec856ccc2e86e5aaba5e109cab4b7c56a2f2028353b3678e2b574f5e610fbda64736f6c634300081c0033",
  "linkReferences": {},
  "deployedLinkReferences": {}
}