{
  "_format": "hh-sol-artifact-1",
  "contractName": "EnclaveKeyManager",
  "sourceName": "contracts/EnclaveKeyManager.flat.sol",
  "abi": [
    {
      "inputs": [],
      "stateMutability": "nonpayable",
      "type": "constructor"
    },
    {
      "anonymous": false,
      "inputs": [
        {
          "indexed": true,
          "internalType": "address",
          "name": "by",
          "type": "address"
        },
        {
          "indexed": false,
          "internalType": "uint256",
          "name": "timestamp",
          "type": "uint256"
        },
        {
          "indexed": false,
          "internalType": "uint256",
          "name": "newNonce",
          "type": "uint256"
        }
      ],
      "name": "KeyRotated",
      "type": "event"
    },
    {
      "anonymous": false,
      "inputs": [
        {
          "indexed": true,
          "internalType": "address",
          "name": "oldOwner",
          "type": "address"
        },
        {
          "indexed": true,
          "internalType": "address",
          "name": "newOwner",
          "type": "address"
        }
      ],
      "name": "OwnerUpdated",
      "type": "event"
    },
    {
      "inputs": [
        {
          "internalType": "bytes32",
          "name": "salt",
          "type": "bytes32"
        }
      ],
      "name": "deriveKey",
      "outputs": [
        {
          "internalType": "bytes32",
          "name": "",
          "type": "bytes32"
        }
      ],
      "stateMutability": "view",
      "type": "function"
    },
    {
      "inputs": [
        {
          "internalType": "bytes32",
          "name": "recipientPublicKey",
          "type": "bytes32"
        }
      ],
      "name": "getEncryptedSecret",
      "outputs": [
        {
          "internalType": "bytes32",
          "name": "nonce",
          "type": "bytes32"
        },
        {
          "internalType": "bytes",
          "name": "ciphertext",
          "type": "bytes"
        }
      ],
      "stateMutability": "view",
      "type": "function"
    },
    {
      "inputs": [],
      "name": "getKeyNonce",
      "outputs": [
        {
          "internalType": "uint256",
          "name": "",
          "type": "uint256"
        }
      ],
      "stateMutability": "view",
      "type": "function"
    },
    {
      "inputs": [],
      "name": "getSecret",
      "outputs": [
        {
          "internalType": "bytes32",
          "name": "",
          "type": "bytes32"
        }
      ],
      "stateMutability": "view",
      "type": "function"
    },
    {
      "inputs": [
        {
          "internalType": "bytes32",
          "name": "_newKey",
          "type": "bytes32"
        }
      ],
      "name": "injectKey",
      "outputs": [],
      "stateMutability": "nonpayable",
      "type": "function"
    },
    {
      "inputs": [],
      "name": "owner",
      "outputs": [
        {
          "internalType": "address",
          "name": "",
          "type": "address"
        }
      ],
      "stateMutability": "view",
      "type": "function"
    },
    {
      "inputs": [],
      "name": "rotateKey",
      "outputs": [],
      "stateMutability": "nonpayable",
      "type": "function"
    },
    {
      "inputs": [
        {
          "internalType": "address",
          "name": "_newOwner",
          "type": "address"
        }
      ],
      "name": "transferOwnership",
      "outputs": [],
      "stateMutability": "nonpayable",
      "type": "function"
    }
  ],
  "bytecode": "0x608060405234801561001057600080fd5b5033600260006101000a81548173ffffffffffffffffffffffffffffffffffffffff021916908373ffffffffffffffffffffffffffffffffffffffff1602179055506100846020423360405160200161006a929190610233565b60405160208183030381529060405261009f60201b60201c565b61008d906102a6565b600081905550600180819055506104a1565b606060008073010000000000000000000000000000000000000173ffffffffffffffffffffffffffffffffffffffff1685856040516020016100e29291906103a1565b6040516020818303038152906040526040516100fe919061040d565b600060405180830381855afa9150503d8060008114610139576040519150601f19603f3d011682016040523d82523d6000602084013e61013e565b606091505b509150915081610183576040517f08c379a000000000000000000000000000000000000000000000000000000000815260040161017a90610481565b60405180910390fd5b809250505092915050565b6000819050919050565b6000819050919050565b6101b36101ae8261018e565b610198565b82525050565b600073ffffffffffffffffffffffffffffffffffffffff82169050919050565b60006101e4826101b9565b9050919050565b60008160601b9050919050565b6000610203826101eb565b9050919050565b6000610215826101f8565b9050919050565b61022d610228826101d9565b61020a565b82525050565b600061023f82856101a2565b60208201915061024f828461021c565b6014820191508190509392505050565b600081519050919050565b6000819050602082019050919050565b6000819050919050565b6000610290825161027a565b80915050919050565b600082821b905092915050565b60006102b18261025f565b826102bb8461026a565b90506102c681610284565b92506020821015610306576103017fffffffffffffffffffffffffffffffffffffffffffffffffffffffffffffffff83602003600802610299565b831692505b5050919050565b6103168161018e565b82525050565b600082825260208201905092915050565b60005b8381101561034b578082015181840152602081019050610330565b60008484015250505050565b6000601f19601f8301169050919050565b60006103738261025f565b61037d818561031c565b935061038d81856020860161032d565b61039681610357565b840191505092915050565b60006040820190506103b6600083018561030d565b81810360208301526103c88184610368565b90509392505050565b600081905092915050565b60006103e78261025f565b6103f181856103d1565b935061040181856020860161032d565b80840191505092915050565b600061041982846103dc565b915081905092915050565b600082825260208201905092915050565b7f72616e646f6d42797465733a206661696c656400000000000000000000000000600082015250565b600061046b601383610424565b915061047682610435565b602082019050919050565b6000602082019050818103600083015261049a8161045e565b9050919050565b6111ec806104b06000396000f3fe608060405234801561001057600080fd5b50600436106100885760003560e01c80635b9fdc301161005b5780635b9fdc30146101025780638da5cb5b14610120578063e5660ef21461013e578063f2fde38b1461016e57610088565b80630ff5d2251461008d578063153a5eaa146100a95780631e58e8e3146100b3578063257e6e09146100e4575b600080fd5b6100a760048036038101906100a29190610a56565b61018a565b005b6100b161028e565b005b6100cd60048036038101906100c89190610a56565b6103d8565b6040516100db929190610b22565b60405180910390f35b6100ec6104e6565b6040516100f99190610b6b565b60405180910390f35b61010a6104f0565b6040516101179190610b86565b60405180910390f35b61012861058a565b6040516101359190610be2565b60405180910390f35b61015860048036038101906101539190610a56565b6105b0565b6040516101659190610b86565b60405180910390f35b61018860048036038101906101839190610c29565b610678565b005b600260009054906101000a900473ffffffffffffffffffffffffffffffffffffffff1673ffffffffffffffffffffffffffffffffffffffff163373ffffffffffffffffffffffffffffffffffffffff161461021a576040517f08c379a000000000000000000000000000000000000000000000000000000000815260040161021190610cb3565b60405180910390fd5b806000819055506001600081548092919061023490610d02565b91905055503373ffffffffffffffffffffffffffffffffffffffff167f80c785e88f5f11187510210d1084c7c255d1eff28a2af10831462c608cf33b5b42600154604051610283929190610d4a565b60405180910390a250565b600260009054906101000a900473ffffffffffffffffffffffffffffffffffffffff1673ffffffffffffffffffffffffffffffffffffffff163373ffffffffffffffffffffffffffffffffffffffff161461031e576040517f08c379a000000000000000000000000000000000000000000000000000000000815260040161031590610cb3565b60405180910390fd5b61035d602042336001546001436103359190610d73565b406040516020016103499493929190610e31565b604051602081830303815290604052610837565b61036690610eb1565b6000819055506001600081548092919061037f90610d02565b91905055503373ffffffffffffffffffffffffffffffffffffffff167f80c785e88f5f11187510210d1084c7c255d1eff28a2af10831462c608cf33b5b426001546040516103ce929190610d4a565b60405180910390a2565b60006060600260009054906101000a900473ffffffffffffffffffffffffffffffffffffffff1673ffffffffffffffffffffffffffffffffffffffff163373ffffffffffffffffffffffffffffffffffffffff161461046c576040517f08c379a000000000000000000000000000000000000000000000000000000000815260040161046390610cb3565b60405180910390fd5b61049860204233604051602001610484929190610f18565b604051602081830303815290604052610837565b6104a190610eb1565b91506104df83836000546040516020016104bb9190610f44565b60405160208183030381529060405260405180602001604052806000815250610926565b9050915091565b6000600154905090565b6000600260009054906101000a900473ffffffffffffffffffffffffffffffffffffffff1673ffffffffffffffffffffffffffffffffffffffff163373ffffffffffffffffffffffffffffffffffffffff1614610582576040517f08c379a000000000000000000000000000000000000000000000000000000000815260040161057990610cb3565b60405180910390fd5b600054905090565b600260009054906101000a900473ffffffffffffffffffffffffffffffffffffffff1681565b6000600260009054906101000a900473ffffffffffffffffffffffffffffffffffffffff1673ffffffffffffffffffffffffffffffffffffffff163373ffffffffffffffffffffffffffffffffffffffff1614610642576040517f08c379a000000000000000000000000000000000000000000000000000000000815260040161063990610cb3565b60405180910390fd5b6000548260015460405160200161065b93929190610f5f565b604051602081830303815290604052805190602001209050919050565b600260009054906101000a900473ffffffffffffffffffffffffffffffffffffffff1673ffffffffffffffffffffffffffffffffffffffff163373ffffffffffffffffffffffffffffffffffffffff1614610708576040517f08c379a00000000000000000000000000000000000000000000000000000000081526004016106ff90610cb3565b60405180910390fd5b600073ffffffffffffffffffffffffffffffffffffffff168173ffffffffffffffffffffffffffffffffffffffff1603610777576040517f08c379a000000000000000000000000000000000000000000000000000000000815260040161076e90610fe8565b60405180910390fd5b8073ffffffffffffffffffffffffffffffffffffffff16600260009054906101000a900473ffffffffffffffffffffffffffffffffffffffff1673ffffffffffffffffffffffffffffffffffffffff167f8292fce18fa69edf4db7b94ea2e58241df0ae57f97e0a6c9b29067028bf92d7660405160405180910390a380600260006101000a81548173ffffffffffffffffffffffffffffffffffffffff021916908373ffffffffffffffffffffffffffffffffffffffff16021790555050565b606060008073010000000000000000000000000000000000000173ffffffffffffffffffffffffffffffffffffffff16858560405160200161087a929190611008565b6040516020818303038152906040526040516108969190611074565b600060405180830381855afa9150503d80600081146108d1576040519150601f19603f3d011682016040523d82523d6000602084013e6108d6565b606091505b50915091508161091b576040517f08c379a0000000000000000000000000000000000000000000000000000000008152600401610912906110d7565b60405180910390fd5b809250505092915050565b606060008073010000000000000000000000000000000000000373ffffffffffffffffffffffffffffffffffffffff168787878760405160200161096d94939291906110f7565b6040516020818303038152906040526040516109899190611074565b600060405180830381855afa9150503d80600081146109c4576040519150601f19603f3d011682016040523d82523d6000602084013e6109c9565b606091505b509150915081610a0e576040517f08c379a0000000000000000000000000000000000000000000000000000000008152600401610a0590611196565b60405180910390fd5b8092505050949350505050565b600080fd5b6000819050919050565b610a3381610a20565b8114610a3e57600080fd5b50565b600081359050610a5081610a2a565b92915050565b600060208284031215610a6c57610a6b610a1b565b5b6000610a7a84828501610a41565b91505092915050565b610a8c81610a20565b82525050565b600081519050919050565b600082825260208201905092915050565b60005b83811015610acc578082015181840152602081019050610ab1565b60008484015250505050565b6000601f19601f8301169050919050565b6000610af482610a92565b610afe8185610a9d565b9350610b0e818560208601610aae565b610b1781610ad8565b840191505092915050565b6000604082019050610b376000830185610a83565b8181036020830152610b498184610ae9565b90509392505050565b6000819050919050565b610b6581610b52565b82525050565b6000602082019050610b806000830184610b5c565b92915050565b6000602082019050610b9b6000830184610a83565b92915050565b600073ffffffffffffffffffffffffffffffffffffffff82169050919050565b6000610bcc82610ba1565b9050919050565b610bdc81610bc1565b82525050565b6000602082019050610bf76000830184610bd3565b92915050565b610c0681610bc1565b8114610c1157600080fd5b50565b600081359050610c2381610bfd565b92915050565b600060208284031215610c3f57610c3e610a1b565b5b6000610c4d84828501610c14565b91505092915050565b600082825260208201905092915050565b7f456e636c6176654b65794d616e616765723a20556e617574686f72697a656400600082015250565b6000610c9d601f83610c56565b9150610ca882610c67565b602082019050919050565b60006020820190508181036000830152610ccc81610c90565b9050919050565b7f4e487b7100000000000000000000000000000000000000000000000000000000600052601160045260246000fd5b6000610d0d82610b52565b91507fffffffffffffffffffffffffffffffffffffffffffffffffffffffffffffffff8203610d3f57610d3e610cd3565b5b600182019050919050565b6000604082019050610d5f6000830185610b5c565b610d6c6020830184610b5c565b9392505050565b6000610d7e82610b52565b9150610d8983610b52565b9250828203905081811115610da157610da0610cd3565b5b92915050565b6000819050919050565b610dc2610dbd82610b52565b610da7565b82525050565b60008160601b9050919050565b6000610de082610dc8565b9050919050565b6000610df282610dd5565b9050919050565b610e0a610e0582610bc1565b610de7565b82525050565b6000819050919050565b610e2b610e2682610a20565b610e10565b82525050565b6000610e3d8287610db1565b602082019150610e4d8286610df9565b601482019150610e5d8285610db1565b602082019150610e6d8284610e1a565b60208201915081905095945050505050565b6000819050602082019050919050565b6000610e9b8251610a20565b80915050919050565b600082821b905092915050565b6000610ebc82610a92565b82610ec684610e7f565b9050610ed181610e8f565b92506020821015610f1157610f0c7fffffffffffffffffffffffffffffffffffffffffffffffffffffffffffffffff83602003600802610ea4565b831692505b5050919050565b6000610f248285610db1565b602082019150610f348284610df9565b6014820191508190509392505050565b6000610f508284610e1a565b60208201915081905092915050565b6000610f6b8286610e1a565b602082019150610f7b8285610e1a565b602082019150610f8b8284610db1565b602082019150819050949350505050565b7f496e76616c696420616464726573730000000000000000000000000000000000600082015250565b6000610fd2600f83610c56565b9150610fdd82610f9c565b602082019050919050565b6000602082019050818103600083015261100181610fc5565b9050919050565b600060408201905061101d6000830185610b5c565b818103602083015261102f8184610ae9565b90509392505050565b600081905092915050565b600061104e82610a92565b6110588185611038565b9350611068818560208601610aae565b80840191505092915050565b60006110808284611043565b915081905092915050565b7f72616e646f6d42797465733a206661696c656400000000000000000000000000600082015250565b60006110c1601383610c56565b91506110cc8261108b565b602082019050919050565b600060208201905081810360008301526110f0816110b4565b9050919050565b600060808201905061110c6000830187610a83565b6111196020830186610a83565b818103604083015261112b8185610ae9565b9050818103606083015261113f8184610ae9565b905095945050505050565b7f656e63727970743a206661696c65640000000000000000000000000000000000600082015250565b6000611180600f83610c56565b915061118b8261114a565b602082019050919050565b600060208201905081810360008301526111af81611173565b905091905056fea2646970667358221220c4d6640ef3d2241aa2d6470059e3aca4664aa91f15cb42de1e212aff484b6fe564736f6c634300081c0033",
  "linkReferences": {},
  "deployedLinkReferences": {}
}